:0400000007EF00F016
:0A0008007C826BED0AF096EF15F014
:10100000003738392F3435362A3132332D23303DED
:051010002B2569000022
:101016002E50800B376E2E502E24396E2DAE16EFC5
:1010260008F018EF08F019EF08F039803950D8B4F5
:101036001FEF08F021EF08F036EF08F03928D8A4A2
:1010460027EF08F029EF08F031EF08F0000E2B6EBD
:10105600000E2C6E000E2D6E000E2E6E2D8E000EC6
:101066002E6E3EEF08F0000E2B6E000E2C6E000E5C
:101076002D6E000E2E6E3250800B386E375038189B
:10108600D8B448EF08F04AEF08F04BEF08F0378C79
:1010960032503224386E31AE53EF08F055EF08F077
:1010A60056EF08F038803850D8B45CEF08F05EEFA1
:1010B60008F073EF08F03828D8A464EF08F066EF5C
:1010C60008F06EEF08F0000E2F6E000E306E000E68
:1010D600316E000E326E318E000E326E7BEF08F0EE
:1010E600000E2F6E000E306E000E316E000E326E48
:1010F6003950385CD8B082EF08F084EF08F0ABEFD7
:1011060008F037AC89EF08F08BEF08F08DEF08F0A8
:10111600800E371A39C03AF038C039F03AC038F084
:101126002BC03AF02FC02BF03AC02FF02CC03AF06B
:1011360030C02CF03AC030F02DC03AF031C02DF05E
:101146003AC031F02EC03AF032C02EF03AC032F03A
:10115600000E3A6E395038C033F0346A335E000EF2
:10116600345A34BEC0EF08F0345009E11A0E335C2D
:10117600D8A0C0EF08F0C2EF08F0F9EF08F02B5046
:101186002C102D102E10D8A4CBEF08F0CEEF08F0BF
:10119600010ECFEF08F0000E3A6E000E2B6E000E19
:1011A6002C6E000E2D6E000E2E6E38C039F002EF3A
:1011B60009F03AA0E1EF08F0E3EF08F0E9EF08F0F4
:1011C600D8903A3001093A6EEBEF08F0D8903A32EF
:1011D6002BA0F0EF08F0F2EF08F0F3EF08F03A8EEC
:1011E6002E342E322D322C322B32392A3850395C9D
:1011F600D8A000EF09F002EF09F0DCEF08F037BCE9
:1012060007EF09F009EF09F049EF09F03950D8A4C2
:101216000FEF09F011EF09F01BEF09F0000E2B6E2E
:10122600000E2C6E000E2D6E000E2E6E6AEF0AF06A
:101236002F502B2630502C2231502D2232502E2268
:101246002EA028EF09F02AEF09F0D6EF09F03AA010
:101256002FEF09F031EF09F037EF09F0D8903A3067
:1012660001093A6E39EF09F0D8903A322BA03EEFD9
:1012760009F040EF09F041EF09F03A8E2E342E3294
:101286002D322C322B32392AD6EF09F02F502B5C17
:1012960030502C5831502D582E50800A336E325013
:1012A600800A3358D8B05AEF09F05CEF09F087EF9F
:1012B60009F02B502F5C336E2C503058346E2D5065
:1012C6003158356E2E503258366EFF0E33242B6E43
:1012D600FF0E34202C6EFF0E35202D6EFF0E3620AD
:1012E6002E6E800E371A3A6C3A50D8A47DEF09F06C
:1012F6007FEF09F08FEF09F0010E2B26000E2C224E
:101306002D222E228FEF09F02F502B5E30502C5AB3
:1013160031502D5A32502E5A2B502C102D102E1083
:10132600D8A498EF09F09AEF09F0CFEF09F03A50F8
:10133600D8A4A0EF09F0A2EF09F0CFEF09F0000E54
:101346002B6E000E2C6E000E2D6E000E2E6E6AEFAA
:101356000AF0D8902B362C362D362E363AAEB6EF0E
:1013660009F0B8EF09F0B9EF09F02B803AA0BEEF0B
:1013760009F0C0EF09F0C4EF09F0D8803A36C6EF9D
:1013860009F0D8903A363950D8B4CCEF09F0CEEF00
:1013960009F0CFEF09F039062DAED4EF09F0D6EFFC
:1013A60009F0ACEF09F0000E386E3AAEDDEF09F049
:1013B600DFEF09F0F7EF09F03AC033F07F0E33168E
:1013C600D8B4E8EF09F0EAEF09F0EEEF09F0010E04
:1013D600386EF7EF09F02BA0F3EF09F0F5EF09F0FF
:1013E600F7EF09F0EAEF09F03850D8B4FDEF09F04D
:1013F600FFEF09F02AEF0AF0010E2B26000E2C2231
:101406002D222E222EA00AEF0AF00CEF0AF02AEF68
:101416000AF02BC033F02CC034F02DC035F02EC0AE
:1014260036F03634363235323432333233C02BF07E
:1014360034C02CF035C02DF036C02EF03928D8B483
:1014460027EF0AF029EF0AF02AEF0AF0392A39289D
:10145600D8B430EF0AF032EF0AF03AEF0AF039501A
:10146600D8A438EF0AF03AEF0AF04CEF0AF0000E73
:101476002B6E000E2C6E000E2D6E000E2E6E395049
:10148600D8A448EF0AF04AEF0AF04CEF0AF0000E33
:10149600376E39A051EF0AF053EF0AF056EF0AF013
:1014A6002D8E57EF0AF02D9ED89039302E6E37AE1E
:1014B6005FEF0AF061EF0AF062EF0AF02E8E2BC0A2
:1014C6002BF02CC02CF02DC02DF02EC02EF01200CB
:1014D6000600FACF02F0FBCF03F0F2A875EF0AF090
:1014E60077EF0AF080EF0AF0F2A27CEF0AF07EEFC7
:1014F6000AF080EF0AF0E7EC16F0F0A685EF0AF0A6
:1015060087EF0AF090EF0AF0F0A08CEF0AF08EEF6A
:101516000AF090EF0AF0E5EC16F0F0A895EF0AF065
:1015260097EF0AF0A0EF0AF0F0A29CEF0AF09EEF08
:101536000AF0A0EF0AF0E3EC16F0F2A6A5EF0AF027
:10154600A7EF0AF0C2EF0AF0F2A0ACEF0AF0AEEF96
:101556000AF0C2EF0AF081A8B3EF0AF0B5EF0AF07D
:10156600C2EF0AF07904D8A4BBEF0AF0BDEF0AF087
:10157600C2EF0AF0000E796E000EB3EC16F0F2A67A
:10158600C7EF0AF0C9EF0AF0E4EF0AF0F2A0CEEFD7
:101596000AF0D0EF0AF0E4EF0AF081B8D5EF0AF0CE
:1015A600D7EF0AF0E4EF0AF07950D8A4DDEF0AF09D
:1015B600DFEF0AF0E4EF0AF0010E796E010EB3ECEC
:1015C60016F0F2A6E9EF0AF0EBEF0AF006EF0BF0E1
:1015D600F2A0F0EF0AF0F2EF0AF006EF0BF081AAA4
:1015E600F7EF0AF0F9EF0AF006EF0BF07804D8A44B
:1015F600FFEF0AF001EF0BF006EF0BF0000E786E2E
:10160600000EA6EC16F0F2A60BEF0BF00DEF0BF0AA
:1016160028EF0BF0F2A012EF0BF014EF0BF028EF0F
:101626000BF081BA19EF0BF01BEF0BF028EF0BF064
:101636007850D8A421EF0BF023EF0BF028EF0BF036
:10164600010E786E010EA6EC16F0F2A62DEF0BF049
:101656002FEF0BF04AEF0BF0F2A034EF0BF036EF62
:101666000BF04AEF0BF081AC3BEF0BF03DEF0BF0CC
:101676004AEF0BF07704D8A443EF0BF045EF0BF0DD
:101686004AEF0BF0000E776E000E99EC16F0F2A6FC
:101696004FEF0BF051EF0BF06CEF0BF0F2A056EFA3
:1016A6000BF058EF0BF06CEF0BF081BC5DEF0BF01D
:1016B6005FEF0BF06CEF0BF07750D8A465EF0BF0F3
:1016C60067EF0BF06CEF0BF0010E776E010E99ECE5
:1016D60016F0F2A671EF0BF073EF0BF08EEF0BF036
:1016E600F2A078EF0BF07AEF0BF08EEF0BF081AEF5
:1016F6007FEF0BF081EF0BF08EEF0BF07604D8A4A2
:1017060087EF0BF089EF0BF08EEF0BF0000E766E85
:10171600000E8CEC16F0F2A693EF0BF095EF0BF0A3
:10172600B0EF0BF0F2A09AEF0BF09CEF0BF0B0EFDE
:101736000BF081BEA1EF0BF0A3EF0BF0B0EF0BF0B7
:101746007650D8A4A9EF0BF0ABEF0BF0B0EF0BF08F
:10175600010E766E010E8CEC16F09DACB5EF0BF01B
:10176600B7EF0BF0C0EF0BF09EACBCEF0BF0BEEF8B
:101776000BF0C0EF0BF0EDEC16F0F2AAC5EF0BF094
:10178600C7EF0BF0D0EF0BF0F2A4CCEF0BF0CEEFDF
:101796000BF0D0EF0BF0CCEC16F09DA0D5EF0BF0D4
:1017A600D7EF0BF0E0EF0BF09EA0DCEF0BF0DEEFD7
:1017B6000BF0E0EF0BF0C6EC16F09DA2E5EF0BF098
:1017C600E7EF0BF0F0EF0BF09EA2ECEF0BF0EEEF75
:1017D6000BF0F0EF0BF0D2EC16F0A0A2F5EF0BF049
:1017E600F7EF0BF000EF0CF0A1A2FCEF0BF0FEEF11
:1017F6000BF000EF0CF0C0EC16F09DA805EF0CF016
:1018060007EF0CF010EF0CF09EA80CEF0CF00EEFAB
:101816000CF010EF0CF0DFEC16F09DAA15EF0CF0B3
:1018260017EF0CF020EF0CF09EAA1CEF0CF01EEF49
:101836000CF020EF0CF0EFEC16F09DA625EF0CF067
:1018460027EF0CF030EF0CF09EA62CEF0CF02EEFED
:101856000CF030EF0CF04BEC16F0A0A635EF0CF0C8
:1018660037EF0CF040EF0CF0A1A63CEF0CF03EEF8A
:101876000CF040EF0CF0E1EC16F09DA445EF0CF0F7
:1018860047EF0CF050EF0CF09EA44CEF0CF04EEF2F
:101896000CF050EF0CF0EBEC16F0A0A055EF0CF0AE
:1018A60057EF0CF060EF0CF0A1A05CEF0CF05EEFD0
:1018B6000CF060EF0CF0E9EC16F003C0FBFF02C081
:1018C600FAFF7C9211001550800B226E15501524DC
:1018D600296E14AE71EF0CF073EF0CF074EF0CF090
:1018E60029802950D8B47AEF0CF07CEF0CF091EFF8
:1018F6000CF02928D8A482EF0CF084EF0CF08CEFC2
:101906000CF0000E126E000E136E000E146E000E1A
:10191600156E148E000E156E99EF0CF0000E126EF9
:10192600000E136E000E146E000E156E1950800B0D
:10193600221A195019242A6E18AEA4EF0CF0A6EF3D
:101946000CF0A7EF0CF02A802A50D8B4ADEF0CF0BB
:10195600AFEF0CF0C4EF0CF02A28D8A4B5EF0CF0CA
:10196600B7EF0CF0BFEF0CF0000E166E000E176E00
:10197600000E186E000E196E188E000E196ECCEF42
:101986000CF0000E166E000E176E000E186E000E8E
:10199600196E1650171018101910D8A4D5EF0CF0A0
:1019A600D7EF0CF0EFEF0CF0000E126E000E136E78
:1019B600000E146E000E156E800E14127F0E151298
:1019C6002250151212C012F013C013F014C014F0F6
:1019D60015C015F032EF0EF02950D8A4F5EF0CF033
:1019E600F7EF0CF001EF0DF0000E126E000E136E05
:1019F600000E146E000E156E32EF0EF02A5029C03E
:101A06001AF01B6A1A5E000E1B5A7F0E1A24236EEA
:101A1600000E1B20246E12C01EF013C01FF014C04F
:101A260020F015C021F0000E126E000E136E000E8F
:101A3600146E000E156E000E256E000E266E000E3C
:101A4600276E000E286E000E2A6E62EF0DF02A50E9
:101A5600D8B430EF0DF032EF0DF049EF0DF0D8901D
:101A66001E361F3620362136D890123613361436D7
:101A7600153628AE41EF0DF043EF0DF044EF0DF0B3
:101A86001280D890253626362736283616501E5C04
:101A960017501F581850205819502158D8A056EFE3
:101AA6000DF058EF0DF061EF0DF0288C16501E5E0C
:101AB60017501F5A1850205A1950215A2A2A190EFF
:101AC6002A6468EF0DF06AEF0DF02AEF0DF01E5054
:101AD6001F1020102110D8B473EF0DF075EF0DF024
:101AE6008DEF0DF025808DEF0DF0D8901236133660
:101AF6001436153628AE82EF0DF084EF0DF085EF23
:101B06000DF01280D890253626362736283623063D
:101B1600D8A0240614AE92EF0DF094EF0DF078EFF6
:101B26000DF0000E2A6E28AE9BEF0DF09DEF0DF026
:101B3600C1EF0DF0FF0E25141A6EFF0E26141B6E54
:101B4600FF0E27141C6E7F0E28141D6E1A501B10D4
:101B56001C101D10D8B4B2EF0DF0B4EF0DF0B8EFB5
:101B66000DF0010E2A6EC1EF0DF012A0BDEF0DF0C3
:101B7600BFEF0DF0C1EF0DF0B4EF0DF02A50D8B461
:101B8600C7EF0DF0C9EF0DF0EDEF0DF0010E1226C7
:101B9600000E13221422152215A0D4EF0DF0D6EF55
:101BA6000DF0EDEF0DF012C01AF013C01BF014C0CB
:101BB6001CF015C01DF01D341D321C321B321A32AA
:101BC6001AC012F01BC013F01CC014F01DC015F093
:101BD600234A242A24BEF8EF0DF0245008E12328D6
:101BE600D8A0F8EF0DF0FAEF0DF005EF0EF0000EAD
:101BF600246E2368000E126E000E136E000E146E15
:101C0600000E156E24BE12EF0EF0245006E12304DA
:101C1600D8B010EF0EF012EF0EF020EF0EF0000E1F
:101C2600246E000E236E000E126E000E136E000E52
:101C3600146E000E156E000E226E23C029F029A028
:101C460027EF0EF029EF0EF02CEF0EF0148E2DEF8D
:101C56000EF0149ED8902930156EE3EF0CF01200AA
:101C66000C6E0C50D8B43AEF0EF03CEF0EF05EEF6F
:101C76000EF007BE43EF0EF041EF0EF05EEF0EF0F2
:101C860004C008F005C009F006C00AF007C00BF052
:101C9600081E091E0A1E0B1E082A000E09220A2209
:101CA6000B2208C00EF009C00FF00AC010F00BC0DE
:101CB60011F066EF0EF004C00EF005C00FF006C07E
:101CC60010F007C011F00450051006100710D8A434
:101CD6006FEF0EF071EF0EF07BEF0EF0000E046E5C
:101CE600000E056E000E066E000E076E0CEF0FF06E
:101CF600960E0D6E85EF0EF00D2AD8901132103229
:101D06000F320E32000E0E14086E000E0F14096EFE
:101D1600000E10140A6EFE0E11140B6E08500910F8
:101D26000A100B10D8A49AEF0EF09CEF0EF07FEF7E
:101D36000EF0AAEF0EF00D2A010E0E26000E0F224F
:101D460010221122D890113210320F320E32000EAC
:101D56000E14086E000E0F14096E000E10140A6E93
:101D6600FF0E11140B6E085009100A100B10D8A4A0
:101D7600BFEF0EF0C1EF0EF09EEF0EF0C9EF0EF0C2
:101D86000D06D8900E360F361036113610BECEEF31
:101D96000EF0D0EF0EF0D8EF0EF0020E0D60D6EF7B
:101DA6000EF0D8EF0EF0C3EF0EF00DB0DDEF0EF033
:101DB600DFEF0EF0E0EF0EF0109ED8900D320DC062
:101DC60008F0096A0A6A0B6A08C00BF00A6A096A0F
:101DD600086A08500E1209500F120A5010120B50C2
:101DE60011120C50D8B4FAEF0EF0FCEF0EF004EF1F
:101DF6000FF007BE03EF0FF001EF0FF004EF0FF047
:101E0600118E0EC004F00FC005F010C006F011C010
:101E160007F012000001D951DA11D8A415EF0FF01E
:101E260017EF0FF01BEF0FF0000E486EBBEF0FF031
:101E3600C69A20EE0CF0D951D926DA51DA22DFA063
:101E460027EF0FF029EF0FF031EF0FF0D9C045F073
:101E5600DAC046F028EC13F06DEF0FF020EE0CF030
:101E6600D951D926DA51DA22DFB03CEF0FF03EEF36
:101E76000FF06DEF0FF020EE0CF0D951D926DA51A4
:101E8600DA22DFA649EF0FF04BEF0FF04EEF0FF01F
:101E9600C58E5CEF0FF020EE0CF0D951D926DA5141
:101EA600DA22DFB659EF0FF05BEF0FF05CEF0FF0C1
:101EB600C59EC69EC69CC68820EE0BF0D951D92673
:101EC600DA51DA22DF50C86ED9C004F0DAC005F064
:101ED60071EC16F0DCEC16F0000120EE0CF0D95196
:101EE600D926DA51DA22DFA27BEF0FF07DEF0FF071
:101EF60080EF0FF0C78E8EEF0FF020EE0CF0D95169
:101F0600D926DA51DA22DFB28BEF0FF08DEF0FF020
:101F16008EEF0FF0C79E20EE0CF0D951D926DA517C
:101F2600DA22DFA499EF0FF09BEF0FF09EEF0FF090
:101F3600C78CACEF0FF020EE0CF0D951D926DA5150
:101F4600DA22DFB4A9EF0FF0ABEF0FF0ACEF0FF032
:101F5600C78CD9C004F0DAC005F01BEC16F0D9C066
:101F660004F0DAC005F062EC16F0C68A010E486E7F
:101F760048501200010E0C6E04500510D8B4C6EF7E
:101F86000FF0C8EF0FF0D9EF0FF004C0D9FF05C06E
:101F9600DAFFDF30E832E832070B066E070E06641A
:101FA600D7EF0FF0D9EF0FF03CEF10F0000E0C6EEC
:101FB6005DEF10F004C0D9FF05C0DAFFDF30E8326C
:101FC600E832070B066E010E076E062AEDEF0FF0DC
:101FD600D8900736062EEBEF0FF00750FF0A086E73
:101FE60004C0D9FF05C0DAFFDF50070B096E0950A0
:101FF600020D940EF324D96E000EF420DA6EDECFB5
:102006000AF0DDCF0BF00AC0D9FF0BC0DAFF08508B
:10201600DF165DEF10F004C0D9FF05C0DAFFDF3030
:10202600E832E832070B066E010E076E062A1EEF2F
:1020360010F0D8900736062E1CEF10F004C0D9FF1A
:1020460005C0DAFFDF50070B086E0850020D940E2C
:10205600F324D96E000EF420DA6EDECF09F0DDCF60
:102066000AF009C0D9FF0AC0DAFF0750DF125DEF98
:1020760010F004C0D9FF05C0DAFFDFBC45EF10F051
:1020860048EF10F0010E49EF10F0000E066E076AD9
:102096000750000AD8B452EF10F0D9EF0FF00650EF
:1020A600000AD8B4DDEF0FF0010AD8B40EEF10F035
:1020B600D9EF0FF00C501200010E0D6E04500510F2
:1020C600D8B468EF10F06AEF10F07BEF10F004C0A0
:1020D600D9FF05C0DAFFDF30E832E832070B076EBA
:1020E600070E076479EF10F07BEF10F0DEEF10F0CB
:1020F600000E0D6EF3EF10F004C0D9FF05C0DAFF35
:10210600DF30E832E832070B076E010E086E072A49
:102116008FEF10F0D8900836072E8DEF10F008508C
:10212600FF0A096E04C0D9FF05C0DAFFDF50070BAE
:102136000A6E0A50020D8A0EF324D96E000EF420A0
:10214600DA6EDECF0BF0DDCF0CF00BC0D9FF0CC082
:10215600DAFF0950DF16F3EF10F004C0D9FF05C00F
:10216600DAFFDF30E832E832070B076E010E086E41
:10217600072AC0EF10F0D8900836072EBEEF10F0F1
:1021860004C0D9FF05C0DAFFDF50070B096E0950FE
:10219600020D8A0EF324D96E000EF420DA6EDECF1D
:1021A6000AF0DDCF0BF00AC0D9FF0BC0DAFF0850EA
:1021B600DF12F3EF10F00650076E086A0850000AA7
:1021C600D8B4E8EF10F07BEF10F00750000AD8B44F
:1021D6007FEF10F0010AD8B4B0EF10F07BEF10F0EB
:1021E6000D501200000E1E6E1A501B10D8A4FEEFE2
:1021F60010F000EF11F004EF11F0000E1F6E87EFE4
:1022060011F01AC00EF01BC00FF02CEC15F01F6E6B
:10221600010E1A240E6E000E1B200F6E2CEC15F00C
:102226001F6E000E1E6E1E501A241C6E000E1B2002
:102236001D6E020E1C240E6E000E1D200F6E2CEC61
:1022460015F01E2A070E1E642BEF11F02DEF11F06C
:1022560016EF11F0340E1C6EF20EE82EFED71C2E71
:10226600FCD71AC011F01BC012F0380E136EBEEC6C
:1022760013F00D0E1C6EFC0EE82EFED71C2EFCD79E
:102286001AC011F01BC012F0380E136EBEEC13F01C
:10229600640EE82EFED71AC011F01BC012F0380EDD
:1022A600136EBEEC13F01AC011F01BC012F0010E33
:1022B600136EBEEC13F01AC011F01BC012F0020E22
:1022C600136EBEEC13F01AC011F01BC012F0060E0E
:1022D600136EBEEC13F01AC011F01BC012F00C0EF8
:1022E600136EBEEC13F01AC011F01BC012F0380EBC
:1022F600136EBEEC13F01AC011F01BC012F0800E64
:10230600136EBEEC13F01F6E1F501200000E1A6EF5
:1023160016501710D8A492EF11F094EF11F098EF21
:1023260011F0000E1B6E1BEF12F016C00EF017C058
:102336000FF02CEC15F01B6E010E16240E6E000E1F
:1023460017200F6E2CEC15F01B6E000E1A6E1A502D
:102356001624186E000E1720196E020E18240E6E23
:10236600000E19200F6E2CEC15F01A2A030E1A64B3
:10237600BFEF11F0C1EF11F0AAEF11F0340E186E95
:10238600F20EE82EFED7182EFCD716C012F017C094
:1023960013F0380E146EF3EC14F00D0E186EFC0EDE
:1023A600E82EFED7182EFCD716C012F017C013F071
:1023B600380E146EF3EC14F0640EE82EFED716C039
:1023C60012F017C013F0380E146EF3EC14F016C0AA
:1023D60012F017C013F0010E146EF3EC14F016C0D1
:1023E60012F017C013F0020E146EF3EC14F016C0C0
:1023F60012F017C013F0060E146EF3EC14F016C0AC
:1024060012F017C013F00C0E146EF3EC14F016C095
:1024160012F017C013F0280E146EF3EC14F016C069
:1024260012F017C013F0800E146EF3EC14F01B6E4E
:102436001B501200D9EC16F00001D891600ED76F30
:10244600060ED66FD895D897D8938E0ED06F2B0ED2
:10245600D16F000ED46F000ED56F000ED26F000E36
:10246600D36FCC0ED96F000EDA6F0DEC0FF07B0E2A
:10247600126E000E136E06EC14F07A0E126E000E3B
:10248600136E06EC14F0610E6B18D8A44DEF12F023
:102496004FEF12F057EF12F07B0E0E6E000E0F6E1E
:1024A60044EC14F046EF12F0620E6B18D8A45EEFFF
:1024B60012F060EF12F068EF12F07A0E0E6E000E58
:1024C6000F6E44EC14F046EF12F0630E6B18D8A4AE
:1024D6006FEF12F071EF12F079EF12F07B0E0E6EC5
:1024E600000E0F6E7FEC14F046EF12F0640E6B18C0
:1024F600D8A480EF12F082EF12F08AEF12F07A0E73
:102506000E6E000E0F6E7FEC14F046EF12F0650EA5
:102516006B18D8A491EF12F093EF12F0A1EF12F01E
:102526007B0E0B6E000E0C6EBAEC14F07A0E0B6E70
:10253600000E0C6EBAEC14F046EF12F046EF12F0F5
:1025460007EF00F03D343E34446E4450D8A4AEEF5D
:1025560012F0B0EF12F0BAEF12F0000E3B6E000E62
:102566003C6E000E3D6E000E3E6E27EF13F03BC034
:102576003FF03CC040F03DC041F03EC042F0200E6E
:10258600CAEF12F0D8904232413240323F32E82E42
:10259600C5EF12F03F50436E3D8EFF0E3B16FF0E09
:1025A6003C16FF0E3D16000E3E16960E445E44BEC9
:1025B600E1EF12F0DFEF12F0F7EF12F04450800A6D
:1025C600970FD8B0E9EF12F0EBEF12F0EDEF12F043
:1025D600B0EF12F0D8903E323D323C323B32443EB0
:1025E600EDEF12F00FEF13F01F0E4464FDEF12F043
:1025F600FFEF12F007EF13F0B0EF12F0D8903B3672
:102606003C363D363E3644064450D8A40DEF13F012
:102616000FEF13F001EF13F04350D8B415EF13F09A
:1026260017EF13F01FEF13F03E1E3D1E3C1E3B6CD2
:10263600000E3C223D223E223BC03BF03CC03CF01B
:102646003DC03DF03EC03EF0120020EE0AF045507F
:10265600D9264650DA22DF50476EC6504718F00B8F
:102666004718C66E000E2F6E000E306E800E316E4D
:10267600BF0E326E45C0D9FF46C0DAFFDECF04F08A
:10268600DECF05F0DECF06F0DECF07F0000E33EC2E
:102696000EF004C016F005C017F006C018F007C00B
:1026A60019F0000E126E240E136EF40E146E490EFF
:1026B600156E66EC0CF012C02BF013C02CF014C093
:1026C6002DF015C02EF00BEC08F02BC03BF02CC003
:1026D6003CF02DC03DF02EC03EF0A5EC12F03B5074
:1026E600C86E120004500510D8B47CEF13F07EEFCC
:1026F60013F08FEF13F004C0D9FF05C0DAFFDF3007
:10270600E832E832070B066E070E06648DEF13F00B
:102716008FEF13F091EF13F0BDEF13F004C0D9FF64
:1027260005C0DAFFDF30E832E832070B066E010E2D
:10273600076E062AA1EF13F0D8900736062E9FEFF4
:1027460013F004C0D9FF05C0DAFFDF50070B086E8F
:102756000850020D8A0EF324D96E000EF420DA6EAC
:10276600DECF09F0DDCF0AF009C0D9FF0AC0DAFFD3
:102776000750DF1A1200000E196E11501210D8A45D
:10278600C7EF13F0C9EF13F0CDEF13F0000E186E7C
:1027960004EF14F011C004F012C005F0000E066E2E
:1027A6005FEC10F0000E196E19501124146E000E15
:1027B6001220156E020E1424046E000E1520056EEE
:1027C60019C016F013C017F0162AECEF13F0D890C4
:1027D6001732162EEAEF13F01750010B066E5FEC58
:1027E60010F0192A070E1964FBEF13F0FDEF13F032
:1027F600D7EF13F011C00EF012C00FF0E5EC15F094
:10280600186E18501200010E156E12501310D8A42F
:102816000FEF14F011EF14F015EF14F0000E156E13
:1028260042EF14F075C016F012C0D9FF13C0DAFFDC
:10283600DF500F0B146E16501418F80B1418166E82
:1028460012C0D9FF13C0DAFFDF38070B146E144627
:102856001446144616501418C70B1418166E169CF8
:1028660012C0D9FF13C0DAFFDFAE02D0168E01D038
:10287600169E160E0E6E000E0F6E2CEC15F01550F1
:1028860012000E500F10D8A44BEF14F04DEF14F0B9
:102896004FEF14F07EEF14F074C011F00EC0D9FFA4
:1028A6000FC0DAFFDF500F0B106E11501018F80B27
:1028B6001018116E0EC0D9FF0FC0DAFFDF38070BF4
:1028C600106E10461046104611501018C70B1018FF
:1028D600116E119C0EC0D9FF0FC0DAFFDFAE02D019
:1028E600118E01D0119E110E046E000E056E010EA2
:1028F600066E5FEC10F012000E500F10D8A486EF93
:1029060014F088EF14F08AEF14F0B9EF14F073C0E6
:1029160011F00EC0D9FF0FC0DAFFDF500F0B106E9B
:1029260011501018F80B1018116E0EC0D9FF0FC0F9
:10293600DAFFDF38070B106E1046104610461150AE
:102946001018C70B1018116E119C0EC0D9FF0FC0BE
:10295600DAFFDFAE02D0118E01D0119E110E046E89
:10296600000E056E000E066E5FEC10F012000B50A6
:102976000C10D8A4C1EF14F0C3EF14F0C5EF14F097
:10298600F2EF14F072C00EF00BC0D9FF0CC0DAFFE4
:10299600DF500F0B0D6E0E500D18F80B0D180E6E46
:1029A6000BC0D9FF0CC0DAFFDF38070B0D6E0D46E2
:1029B6000D460D460E500D18C70B0D180E6E0E9CCB
:1029C6000BC0D9FF0CC0DAFFDFAE02D00E8E01D0ED
:1029D6000E9E0E0E046E000E056E75EC13F01200C0
:1029E60012501310D8A4FAEF14F0FCEF14F000EF15
:1029F60015F0000E156E2AEF15F012C004F013C084
:102A060005F0000E066E5FEC10F0156E12C00EF0AB
:102A160013C00FF014380F0B106E62EC15F0156E24
:102A260012C00EF013C00FF000EC16F0156E12C0B7
:102A36000EF013C00FF014C010F062EC15F0156E16
:102A460012C00EF013C00FF000EC16F0156E155004
:102A560012000E500F10D8B433EF15F035EF15F005
:102A660046EF15F00EC0D9FF0FC0DAFFDF30E832AF
:102A7600E832070B106E070E106444EF15F046EFB0
:102A860015F04AEF15F0000E116E60EF15F00EC04E
:102A960004F00FC005F0BDEC0FF0116E0EC004F08F
:102AA6000FC005F00EC0D9FF0FC0DAFF000EDFBE63
:102AB600010E066E5FEC10F0116E11501200020E40
:102AC6000E24046E000E0F20056E1050010B066ECC
:102AD6005FEC10F0030E0E24046E000E0F20056E40
:102AE600D8901030010B066E5FEC10F0040E0E2429
:102AF600046E000E0F20056E1040E8423F0B010BDE
:102B0600066E5FEC10F0050E0E24046E000E0F200C
:102B1600056E1038E8461F0B010B066E5FEC10F0D1
:102B2600116E11501200680EF66E2C0EF76E000E26
:102B3600F86E00EE80F010EE2EF00900F5CFEEFFF5
:102B4600E550E150FAE1AC0EF66E2D0EF76E000E72
:102B5600F86E00EE76F010EE06F00900F5CFEEFF07
:102B6600E550E150FAE100EEAEF02B0EEE6AE80613
:102B7600FDE100EE49F02D0EEE6AE806FDE17C90DF
:102B86007C9200011DEF12F0C698C7B4CDEF15F088
:102B9600CFEF15F0E2EF15F0C7BAD4EF15F0D6EF88
:102BA60015F0E2EF15F0C950C7A0DCEF15F0DEEF27
:102BB60015F0D7EF15F0C9CF6BF0E3EF15F0C7505E
:102BC600C6881200010E0E24046E000E0F20056E3C
:102BD600010E066E5FEC10F0030EE82EFED700F035
:102BE600010E0E24046E000E0F20056E000E066EFA
:102BF6005FEC10F0106E10501200010E0E24046EE1
:102C0600000E0F20056E010E066E5FEC10F0030E2F
:102C1600E82EFED700F0010E0E24046E000E0F20E3
:102C2600056E000E066E5FEC10F0106E105012006E
:102C360020EE08F00450D9260550DA22DECFC8F07F
:102C4600DDCFC9F09D869E9620EE04F00450D9266D
:102C56000550DA22DECF63F0DDCF64F0F28EF28C1F
:102C66001200800F810F820F830F840F890F8A0F46
:102C76008B0F8C0F8D0F920F930F940F950F960F4E
:102C8600323A030B131B232B333B020A121A222A56
:102C96009E9663506410D8B453EF16F055EF16F0B5
:102CA60061EF16F002D861EF16F00500FA6E635078
:102CB600FD6E6450FE6EFF6AFA5012001200A08686
:102CC600A19620EE06F00450D9260550DA22DECF72
:102CD60061F0DDCF62F0F28EF28C120020EE0AF087
:102CE6000450D9260550DA22DF50066EC650061863
:102CF600F00B0618C66E1200A80E166E000E176EA2
:102D060089EC11F09E0E1A6E000E1B6EF5EC10F09B
:102D16001200016EF2900150D8A494EF16F096EFCF
:102D260016F098EF16F098EF16F01200016EF2907A
:102D36000150D8A4A1EF16F0A3EF16F0A5EF16F0F8
:102D4600A5EF16F01200016EF2900150D8A4AEEF76
:102D560016F0B0EF16F0B2EF16F0B2EF16F0120062
:102D6600016EF2900150D8A4BBEF16F0BDEF16F03D
:102D7600BFEF16F0BFEF16F01200A1924A50B36EE5
:102D860049C0B2FF12009E904C50CF6E4BC0CEFF92
:102D96001200F2944E50D76E4DC0D6FF12009E928E
:102DA6006EC0CCFF12000101010113037FEC16F087
:102DB60012009486948812009D981200A196120023
:102DC600F0921200F0901200F2921200A1901200FE
:0A2DD6009E9412009E9C1200120051
:020000040020DA
:08000000FFFFFFFFFFFFFFFF00
:020000040030CA
:0E000000FF020912FF8181FF0FC00FE00F40C9
:00000001FF
